:200000000C9417010C942B010C942B010C942B010C942B010C942B010C942B010C942B0194
:200020000C942B010C942B010C942B010C942B010C942B010C942B010C942B010C942B0160
:200040000C942B010C942B010C942B010C942B010C942B010C942B010C942B010C9410025A
:200060000C942B010C942B010C942B010C942B010C942B010C942B010C942B010C942B0120
:200080000C942B010C942B010C942B010C942B010C942B010C942B010C942B010C942B0100
:2000A0000C942B010C942B010C942B010C942B010C942B010C942B010C942B010C942B01E0
:2000C0000C942B010C942B010C942B010C942B010C942B010C942B010C942B010C942B01C0
:2000E0000C942B010C9485010C94AF010C94AB010C945E010C9474010C9459010C9497012C
:200100000C94A1010C947F010C9478010C948F010C947C010C9489010C9470010C949301A8
:200120000C94A5010C949D0100002100240027002A002D0030003300010100000401070106
:200140000A0100002200250028002B002E003100340002010000050108010B010505050535
:20016000070508080808020202020A0A0808040404040101010101010101030303030303FD
:200180000303040707070C0C0C0C0C0C0C0C0202020206060606060606060B0B0B0B0B0B66
:2001A0000B0B01021020200808102040102040800201020108040201010204081020408052
:2001C00080402010080402018004020180402010080402010804020101020408102040808C
:2001E000010204081020408000000A0B02090C0D0E080703040100000000000000000000A2
:200200000000000000000000000000000000000000000000121110000000000000000000AB
:20022000000000000000000000000000000011241FBECFEFD1E2DEBFCDBF00E00CBF22E065
:20024000A0E0B2E001C01D92A930B207E1F70E945A020C94FE020C940000382FE5EFF1E068
:200260008491EFEAF1E02491E9E6F1E09491992309F435C0882311F181508231F8F4E82F63
:20028000F0E08827E95BFE4F8F4F0C94F60278017C015901700174015E017F0185018901B3
:2002A0008F01930197019D01A1015E01A501AB01AF01809180008F7780938000E92FF0E0CF
:2002C000EE0FFF1FEE5BFE4FA591B4918FB7F894EC91311148C020952E232C938FBF0895A9
:2002E000809180008F7DE8CF80918000877FE4CF84B58F7784BDE2CF84B58F7DFBCF80910F
:20030000B0008F778093B000D9CF8091B0008F7DF9CF809190008F7780939000CFCF80912E
:2003200090008F7DF9CF80919000877FF5CF8091A0008F778093A000C1CF8091A0008F7D37
:20034000F9CF8091A000877FF5CF809120018F7780932001B3CF809120018F7DF9CF809155
:200360002001877FF5CF2E2BB8CF3FB7F8948091050290910602A0910702B091080226B58F
:20038000A89B05C02F3F19F00196A11DB11D3FBFBA2FA92F982F8827BC01CD01620F711DFC
:2003A000811D911D42E0660F771F881F991F4A95D1F708958F929F92AF92BF92CF92DF926B
:2003C000EF92FF920E94B5014B015C0188EEC82E83E0D82EE12CF12C0E94B50168197909B0
:2003E0008A099B09683E734081059105A8F321E0C21AD108E108F10888EE880E83E0981EF9
:20040000A11CB11CC114D104E104F10429F7FF90EF90DF90CF90BF90AF909F908F90089559
:200420001F920F920FB60F9211242F933F938F939F93AF93BF938091010290910202A091E9
:200440000302B09104023091000223E0230F2D3758F50196A11DB11D2093000280930102B9
:2004600090930202A0930302B09304028091050290910602A0910702B09108020196A11DB9
:20048000B11D8093050290930602A0930702B0930802BF91AF919F918F913F912F910F90B1
:2004A0000FBE0F901F90189526E8230F0296A11DB11DD2CF789484B5826084BD84B58160ED
:2004C00084BD85B5826085BD85B5816085BD80916E00816080936E0010928100809181008A
:2004E00082608093810080918100816080938100809180008160809380008091B1008460D4
:200500008093B1008091B00081608093B000809191008260809391008091910081608093F4
:200520009100809190008160809390008091A10082608093A1008091A10081608093A10076
:200540008091A00081608093A00080912101826080932101809121018160809321018091B2
:20056000200181608093200180917A00846080937A0080917A00826080937A0080917A00C4
:20058000816080937A0080917A00806880937A001092C100EFEAF1E02491E9E6F1E0849176
:2005A000882399F090E0880F991FFC01E85DFE4FA591B491FC01EE5BFE4F859194918FB72A
:2005C000F894EC91E22BEC938FBFC0E0D0E081E00E942D010E94DA0180E00E942D010E9468
:2005E000DA012097A1F30E940000F1CFEE0FFF1F881F8BBF0790F691E02D1994F894FFCF35
:20060000A10082608093A1008091A10081608093A1008091A00081608093A00080912101E4
:20062000826080932101809121018160809321018091200181608093200180917A008460A4
:2006400080937A0080917A00826080937A0080917A00816080937A0080917A008068809394
:200660007A001092C100E0912602F091270282E08083E0912202F09123021082E091240291
:20068000F09125028FEC808310922E02E0912A02F0912B0286E08083E0912802F091290267
:2006A000808180618083E0912802F0912902808188608083E0912802F091290280818068F2
:2006C0008083E0912802F091290280818F7D808310E48AE0882E912CA12CB12C80917B00B9
:2006E000877F80937B0010937C0080917A00806480937A0080917A0086FDFCCFC0907800AA
:20070000D09079000D2C000CEE08FF08F7FE48C06DE286E192E00E94710122273327A90138
:200720002C193D094E095F0919A2CE0181967C01CA01B901A50194010E941304605DF70123
:2007400062937F01211531054105510589F7E114F10461F001900020E9F73197AF014E19F1
:200760005F09B70186E192E00E94DB0042E050E062E172E086E192E00E94DB000E94B6006E
:200780006B017C010E94B6006C197D098E099F09683E734081059105A8F30E94DE019ECFD0
:2007A000A701960119A2CE0181967C01CA01B901A50194010E941304605DF70162937F0139
:2007C000211531054105510589F7C1CFE6E1F2E01382128288EE93E0A0E0B0E08483958327
:2007E000A683B78384E092E09183808385EC90E09587848784EC90E09787868780EC90E0BA
:20080000918B808B81EC90E0938B828B82EC90E0958B848B86EC90E0978B868B118E128E48
:20082000138E148E0895A1E21A2EAA1BBB1BFD010DC0AA1FBB1FEE1FFF1FA217B307E4077B
:20084000F50720F0A21BB30BE40BF50B661F771F881F991F1A9469F7609570958095909566
:200860009B01AC01BD01CF010895EE0FFF1F881F8BBF0790F691E02D1994F894FFCF0000C6
:2008800000007101DB000801BE01390117012B010D0A000080919100816080939100809176
:2008A00090008160809390008091A10082608093A1008091A10081608093A1008091A000E4
:2008C00081608093A0008091210182608093210180912101816080932101809120018160DE
:2008E0008093200180917A00846080937A0080917A00826080937A0080917A00816080934F
:200900007A0080917A00806880937A001092C100E0912B02F0912C0282E08083E0912702AE
:20092000F09128021082E0912902F0912A028FEC808310923302E0912F02F091300286E021
:200940008083E0912D02F0912E02808180618083E0912D02F0912E02808188608083E091B0
:200960002D02F0912E02808180688083E0912D02F0912E0280818F7D8083EFECF1E02491E9
:20098000E9E8F1E08491882399F090E0880F991FFC01E85BFE4FA591B491FC01EE59FE4F14
:2009A000859194918FB7F894EC91E22BEC938FBF80E00E945B0165E58BE192E00E94790230
:2009C00081E00E945B0164E170E080E090E00E943C0380E00E945B0160EE71E080E090E0A5
:2009E0000E943C030E94E602E6CFEBE1F2E01382128288EE93E0A0E0B0E084839583A683CF
:200A0000B78384E092E09183808385ED90E09587848784ED90E09787868780ED90E0918BA1
:200A2000808B81ED90E0938B828B82ED90E0958B848B86ED90E0978B868B118E128E138E9E
:200A4000148E0895EE0FFF1F881F8BBF0790F691E02D1994F894FFCF000000007902E301BA
:200A60001002C60241021F023302FFFFFFFFFFFFFFFFFFFFFFFFFFFFFFFFFFFFFFFFFFFF19
:200A8000FFFFFFFFFFFFFFFFFFFFFFFFFFFFFFFFFFFFFFFFFFFFFFFFFFFFFFFFFFFFFFFF76
:200AA000FFFFFFFFFFFFFFFFFFFFFFFFFFFFFFFFFFFFFFFFFFFFFFFFFFFFFFFFFFFFFFFF56
:200AC000FFFFFFFFFFFFFFFFFFFFFFFFFFFFFFFFFFFFFFFFFFFFFFFFFFFFFFFFFFFFFFFF36
:200AE000FFFFFFFFFFFFFFFFFFFFFFFFFFFFFFFFFFFFFFFFFFFFFFFFFFFFFFFFFFFFFFFF16
:200B0000A7016EEFCE010E944C048823A1F388E592E00E94FA03182F84E2112359F320E025
:200B200030E0A9016DE0CE010E948104882311F08AE0E0CF0E94F7038111FACFCE010E948B
:200B40001D04BDCFEF92FF921F93CF93DF93FC01208111E020FF12C0EC017C01FBE0EF0E8E
:200B6000F11C4B815C816D817E81970189819A810E944E05182F811108C010E0812FDF916F
:200B8000CF911F91FF90EF900895888181FD04C088818E7F8883F2CF4B815C816D817E81D7
:200BA0008F819885A985BA85480F591F6A1F7B1F970189819A810E944E058111E9CFDDCF01
:200BC000CF93DF93EC011D8620E030E0A9016CE00E948104882349F089E08B87CE010E94B4
:200BE0001D0480E0DF91CF910895CE010E941D0481E0F8CFFC012585223011F40C942F047C
:200C0000213011F40C94E00581E008958F929F92AF92BF92CF92DF92EF92FF920F931F93DF
:200C2000CF93DF931F921F92CDB7DEB77C014A015B016901FC018585813049F484819581C7
:200C4000A681B78188159905AA05BB0581F1F7018785A5019401833039F089E0220F331F12
:200C6000441F551F8A95D1F762E1C7010E9481048823B1F08CE0F7018387C7010E941D043F
:200C800080E00F900F90DF91CF911F910F91FF90EF90DF90CF90BF90AF909F908F90089541
:200CA00081E0F701858784829582A682B782F1E0CF1AFEEFDF0AB12CA12C99249A94A01676
:200CC000B10609F43AC00E949303645D7E4F7A8369830E94F703F70186878F3F41F4CE0144
:200CE00001960E94D2038823A1F38EE1C4CF8E3F11F089E1C0CF9EBCF601EF5FF140CE162A
:200D0000DF0649F0000000000DB407FEFDCF8EB59EBC8193F4CF0DB407FEFDCF8EB5F601E3
:200D20008083F70116860E94F7030E94F703FFEFAF1ABF0A8EEFD81AC2CFF7018481958151
:200D4000A681B7818A0D9B1DA11DB11D84839583A683B7838085811194CFC7010E94E0058E
:200D600090CF8F929F92AF92BF92FF920F931F93CF93DF93DC011196ED91FC91EF2B61F479
:200D800090E080E0DF91CF911F910F91FF90BF90AF909F908F900895F22E4A015B01EC01A7
:200DA0008B819C81AD81BE8188159905AA05BB0561F0CE010E94A205882311F3F2FE0DC01E
:200DC00018828B829C82AD82BE822F2D2370F880F22AF882CE010B96D5CF01E010E09E015E
:200DE000255F3F4FB501A40189819A810E9406068111E6CFC5CF2F923F924F925F926F9273
:200E00007F928F929F92AF92BF92CF92DF92EF92FF921F93CF93DF9300D000D000D01F9252
:200E2000CDB7DEB79A87898749835A836B837C836A017B0122E0C21AD108E108F108452BE2
:200E4000462B472B41F4E985FA85E55FFD4FC080D180E280F38089859A85855E9D4F98877C
:200E60008F83FC0180819181A281B381C816D906EA06FB0618F0C12CD12C7601D701C60143
:200E800043E0B695A795979587954A95D1F71C01F1E03F2211E0C6018770992701C0110F1A
:200EA0008A95EAF7260137014601570129853A85295E3D4F3E832D83ED81FE818081918143
:200EC000A281B381B501A4013CE076956795579547953A95D1F7480F591F6A1F7B1F20E0EC
:200EE00089859A850E94B106009709F472C0FC01E20DF31D2081FFEF8F1A9F0AAF0ABF0A47
:200F0000322F3123D1F5B501A4014419550966097709413051056105710589F589819A810B
:200F2000AB81BC81892B8A2B8B2B49F4A985BA85A55FBD4FFD014082518262827382C3013F
:200F4000B2016E5F7F4F8F4F9F4F2A960FB6F894DEBF0FBECDBFDF91CF911F91FF90EF90E2
:200F6000DF90CF90BF90AF909F908F907F906F905F904F903F902F90089524013501C81489
:200F8000D904EA04FB0449F1AF81B8854D915D916D917C9184169506A606B70680F4110FD7
:200FA00009F0A9CF91012F5F3F4F312C212C11E02115B2E03B0708F07FCF190198CF212C59
:200FC00022E0322E412C512C3201812C912C5401E9CF60E070E0CB01B8CF61E070E080E047
:200FE00090E0B3CF8F929F92AF92BF92CF92DF92EF92FF920F931F9342305105610571053F
:2010000060F480E01F910F91FF90EF90DF90CF90BF90AF909F908F900895FC01C08CD18CD1
:20102000E28CF38CC416D506E606F70650F3480159016A018581803229F584899589A689A4
:20104000B78917E076956795579547951A95D1F7480F591F6A1F7B1F23E0CF0180960E9496
:20106000B106009771F2CC0CDD1CCC0CDD1CF1E0DF228C0D9D1DFC0180829182A282B3828D
:2010800081E0C0CF803109F0BCCF44895589668977894D0D511D611D711D23E0CF018096D4
:2010A0000E94B106009709F4ACCFCC0CDD1CF1E0DF22C80ED91EF60111830083E1CFCF9239
:2010C000DF92EF92FF920F931F93CF93DF93423051056105710550F48FEFDF91CF911F917F
:2010E0000F91FF90EF90DF90CF900895FC01C08CD18CE28CF38CC416D506E606F70660F353
:2011000089016A01EC018581803299F584899589A689B789E7E07695679557954795EA95F8
:20112000D1F7480F591F6A1F7B1F22E0CE0180960E94B106009781F2CC0CDD1CCC0CDD1C09
:20114000F1E0DF228C0D9D1DFC0180819181A281B381488D598D6A8D7B8D481759076A0719
:201160007B0730F1F80180839183A283B38381E0B4CF803109F0B0CF4489558966897789BA
:201180004D0D511D611D711D22E0CF0180960E94B106009709F4A0CFCC0CDD1CF1E0DF2294
:2011A000C80ED91EF60180819181B0E0A0E0D1CF80E093CFFC019C01255F3F4F80E080FB5F
:2011C000879587F99191890FE217F307C1F708950F931F93CF93DF93EC018A8187FF3EC0CD
:2011E0004C895D896E897F898E819F8121E080960E94B106009749F489818160898380E06B
:20120000DF91CF911F910F910895EC81FD81EF70FF2725E0EE0FFF1F2A95E1F7E80FF91FDB
:20122000309751F38081853E39F3888187738387888183FF08C0888D998DAA8DBB8D848F86
:20124000958FA68FB78F8C8D9D8DAE8DBF8D938F828FB58BA48B8A818F778A830E811F8136
:20126000C80180960E94A205882331F2F801808191810E94FA05882309F4BECFC1CF4F9225
:201280005F926F927F928F929F92AF92BF92CF92DF92EF92FF920F931F93CF93DF93EC016E
:2012A0004A015B014C845D846E847F842881222309F45CC0488959896A897B894815590575
:2012C0006A057B0581F081149104A104B10469F41C861D861E861F86888A998AAA8ABB8A91
:2012E0008A818F7D8A8381E046C023FF2CC0888D998DAA8DBB8D88159905AA05BB05B0F150
:20130000EE81FF813481375F7501640181E0C81AD108E108F108032E04C0F694E794D79455
:20132000C7940A94D2F78A8186FF36C08C8D9D8DAE8DBF8D8C0D9D1DAE1DBF1D8C879D876A
:20134000AE87BF87C9CF26FFDBCFEE81FF818681978125E0880F991F2A95E1F7B0E0A0E0A2
:2013600088159905AA05BB0508F0B6CF4C865D866E867F8680E0DF91CF911F910F91FF9089
:20138000EF90DF90CF90BF90AF909F908F907F906F905F904F900895DB01CA010197A109C2
:2013A000B10904C0B695A795979587953A95D2F7C816D906EA06FB0620F0452B462B472B37
:2013C00049F527FF22C0848D958DA68DB78D8C879D87AE87BF878E01045F1F4FC114D10461
:2013E000E104F10409F478CF4C855D856E857F8598018E819F810E945F0891E0C91AD10827
:20140000E108F108181654F3B1CF8C8D9D8DAE8DBF8DDDCFC81AD90AEA0AFB0ADCCFCF93B4
:20142000DF93EC018881882341F0CE010E94E80818821A82DF91CF91089581E0F9CF3F926A
:201440004F925F926F927F928F929F92AF92BF92CF92DF92EF92FF920F931F93CF93DF93B8
:2014600000D01F92CDB7DEB75C01FC01448455846684778486809780F401C084D184E284E1
:20148000F384C414D504E604F704C0F47301620110E0FFEFCF1ADF0AEF0AFF0AF401808D00
:2014A000918DA28DB38D8C159D05AE05BF0540F4111132C0C084D184E284F38411E0E9CF7E
:2014C0004C145D046E047F0439F19E012F5F3F4FB701A601C4010E945F0887FD1DC0882338
:2014E000C1F289819A81AB81BC81892B8A2B8B2B81F6112329F0F401C086D186E286F38655
:201500000FEF1FEF2FEF3FE0B701A601C4010E94F207382E811118C0312C832D0F900F90A8
:201520000F900F90DF91CF911F910F91FF90EF90DF90CF90BF90AF909F908F907F906F9087
:201540005F904F903F9008954114510461047104B9F4F501C486D586E686F7868281411444
:20156000510461047104B1F0FFEF4F1A5F0A6F0A7F0A4C145D046E047F0479F08F7B0BC0E5
:2015800097018601B301A201C4010E94F2078111E0CFC2CF8064F5018283F50182818068E3
:2015A0008283BBCF8F929F92AF92BF92CF92DF92EF92FF920F931F934230510561057105DC
:2015C00060F480E01F910F91FF90EF90DF90CF90BF90AF909F908F900895FC01E55EFD4F26
:2015E000C080D180E280F380EFEFCE1ADE0AEE0AFE0AC416D506E606F70618F3480159018B
:201600006A01FC01E15FFD4F37E076956795579547953A95D1F70081118122813381400FA0
:20162000511F621F731F21E00E94B106009749F2CC0CDD1CCC0CDD1CF1E0DF22C80ED91EBA
:20164000F60180829182A282B38281E0BBCFCF92DF92EF92FF920F931F93CF93DF93E90144
:20166000FC01E55EFD4F00811181228133810F5F1F4F2F4F3F4F041715072607370750F4A6
:201680008FEFDF91CF911F910F91FF90EF90DF90CF9008956A01FC01E15FFD4F37E076951D
:2016A0006795579547953A95D1F70081118122813381400F511F621F731F20E00E94B1063A
:2016C0000097F1F2CC0CDD1CCC0CDD1C21E0D222C80ED91EF60180819181A281B3818F3FFD
:2016E000FFEF9F07AF07BF0731F088839983AA83BB8381E0C6CF80E0C4CF0F931F93CF9388
:20170000DF93EB01E42FDC01AD5DBD4F4D915D916D917C9113970C811D812E813F814023E7
:2017200051236223732329E076956795579547952A95D1F7088119812A813B8102501109C5
:20174000210931091B96FC9104C0000F111F221F331FFA95D2F7400F511F621F731F579739
:201760000D911D912D913C91400F511F621F731F2E2F0E94B106009729F02C813D8131704E
:20178000820F931FDF91CF911F910F9108954F925F926F927F928F929F92AF92BF92CF9220
:2017A000DF92EF920F931F93CF93DF936C0148015901DB01CA010297A109B109AC01BD01F0
:2017C000480D591D6A1D7B1DF601E55EFD4F0081118122813381041715072607370708F491
:2017E0007FC070974080518062807380EE2009F46CC0481659066A067B0688F0441655062B
:201800006606770660F4401751076207730718F040E050E0BA0140835183628373839C01D7
:201820002770332711E001C0110F2A95EAF72C013D012CE076946794579447942A95D1F77C
:20184000F601E95EFD4F4081518162817381440D551D661D771D33E0B695A79597958795D8
:201860003A95D1F7EC01D1702A013B012FEF421A520A620A720A21E0C6010E94B1060097C6
:2018800079F1FC01EC0FFD1FA12F2081422F4A2331E009F430E03E1519F12A272083B1E07B
:2018A0008B1A9108A108B10861F1AA0F71F73196B301A201D0E0C0E011E0A1E09F01281B52
:2018C000390B2115324009F7CFCF84159505A605B70508F0A4CF80839183A283B3839FCF99
:2018E00080E0DF91CF911F910F91EF90DF90CF90BF90AF909F908F907F906F905F904F9063
:20190000089581E0EECF4F925F926F927F928F929F92AF92BF92EF92FF920F931F93CF937C
:20192000DF93EC0188A199A1488D598D6A8D7B8D4115510561057105F9F04F5F5F4F6F4FA0
:201940007F4F0E94FB064B015C0122E082169104A104B104A8F4F12C8F2DDF91CF911F91EF
:201960000F91FF90EF90BF90AF909F908F907F906F905F904F90089540E050E0BA01E1CFA9
:20198000EE24E39401E010E020E030E0BC01A40188A199A10E94C70BF82E8823E1F2488D2B
:2019A000598D6A8D7B8D8EA5411551056105710539F480648EA7888E998EAA8EBB8ECCCFE8
:2019C00086FF2AC04F5F5F4F6F4F7F4F481559056A057B0581F38F7B8EA74C8D5D8D6E8D95
:2019E0007F8D88A199A1488C598C6A8C7B8C441555056605770580F42A013B012FEF421AD3
:201A0000520A620A720A930182010E94D20AB301A2018111E6CF9FCF0FEF1FEF9801B50186
:201A2000A40188A199A10E94D20A882309F493CF488D598D6A8D7B8D4115510561057105D4
:201A400009F4B9CF9501840188A199A10E94D20A8111B1CF80CFCF93DF93EC010E94A2059A
:201A6000882341F0C55DDD4F88819981DF91CF910C94FA0580E0DF91CF9108952F923F924B
:201A80004F925F926F927F928F929F92AF92BF92CF92DF92EF92FF920F931F93CF93DF9372
:201AA000CDB7DEB762970FB6F894DEBF0FBECDBF988B8F874801222E3D834E83352E2B01DB
:201AC000DC0158962D913D914D915C915B972B873C874D875E879C96BC91BF83BB2309F428
:201AE000E3C0FC01F081F887DC011196BC91B987FC01F281FA87DC0113966C90139714967E
:201B00007C9014971596BC91FC01F681F98BFC01F781FA8B288539854A85562D672D7B2F29
:201B200089899F2F5801C22CDD80EE80F32C82010E941F29F1F09401422D5D2D6E2D732D7D
:201B4000C201A0E00E942829B1F4AF85B88958961D921D921D921C925B97EF85F8898082A3
:201B6000918222822D8123833E81348335824682578281E0A4C0EF81E3FF10C0EF85F889B0
:201B800020893189428953896489758986899789DD80EE800E941F2908F486C0EF85F88935
:201BA000A0A0B1A0C501825D9D4FFC011081175F9401422D5D816E81732DC201AFEF0E948B
:201BC0000A29012F0E94E628942F852FA901692F782F69017B01EF85F88986A586FF0DC03A
:201BE000848D958DA68DB78D840F951FA61FB71F808F918FA28FB38FB0CF288539854A85FE
:201C0000562D672D7B2F89899A89AFEF0E940A290E94E62829833A834B835C8329813A8130
:201C20004B815C81C216D306E406F50668F0288539854A85562D672D7B2F89899A89A0E05D
:201C40000E94282909F05BC0BF81B6FF51C0F501E15EFD4F80819181A281B381EF85F88997
:201C6000808F918FA28FB38F6F84788838E1630E711CC114D104E104F10409F46ECFAF85C6
:201C8000B88958964D915D916D917C915B97930190968D919C910E94270BB1E0CB1AD10824
:201CA000E108F10818162CF38B859C85AD85BE85EF85F889808F918FA28FB38F80E0629660
:201CC0000FB6F894DEBF0FBECDBFDF91CF911F910F91FF90EF90DF90CF90BF90AF909F9004
:201CE0008F907F906F905F904F903F902F900895EF85F889848D958DA68DB78DAFCF2981F7
:201D00003A814B815C81C21AD30AE40AF50AACCF9F92AF92BF92CF92DF92EF92FF920F93F5
:201D20001F93CF93DF9300D000D000D0CDB7DEB78C01942E89E0F801B296DE011196019084
:201D40000D928A95E1F7F801A0A0B1A0F0E26F9FC0011124B0E0A0E04D815E816F817885E3
:201D6000F501ED5DFD4FC080D180E280F380C422D522E622F722C80ED91EEA1EFB1E840FF2
:201D8000951FA61FB71F8D839E83AF83B8873B968081875F04C0F694E794D794C7948A95EC
:201DA000D2F7C114D104E104F10489F149815A816B817C818985882371F04F5F5F4F6F4F9A
:201DC0007F4F49835A836B837C8321E0C21AD108E108F108E6CF9E012F5F3F4FC5010E942F
:201DE000270B813091F390E080E029960FB6F894DEBF0FBECDBFDF91CF911F910F91FF90F7
:201E0000EF90DF90CF90BF90AF909F900895492DBE016F5F7F4FF80180A191A10E947D0BD4
:201E2000E4CFFF920F931F93CF93DF93FC0124A5211107C081E0DF91CF911F910F91FF9067
:201E40000895EC0186A587FF8AC08F7786A7F12C10E000E08BA58F1508F469C040E06F2D28
:201E6000CE010E94880EFC01892B09F473C08081803C61F1813C69F0853809F06BC08CA543
:201E8000877390E095838483A8A1B9A18C9181608C93408190E080E000FB1795079517F915
:201EA000DF01A80FB91F2C91020F111D8130910521F423E030E0453811F021E030E0820F28
:201EC000931F8032910540F3F394C4CF81819EA596FF2BC082608183788969895A894B8966
:201EE0003C892D899E898F89708761875287438734872587968787878C8D9D8DAE8DBF8D4A
:201F0000848B958BA68BB78B788569855A854B853C852D859E858F85708F618F528F438F39
:201F2000348F258F968F878FAFCF8D7FD4CF41E0BE016E5D7F4F88A199A10E947D0B009725
:201F400049F0FC011383028388A199A10E942B0D811170CF8DA581608DA780E06CCF80A11F
:201F600091A10E942B0D811165CF9DA591609DA762CF0F931F93CF93DF93EC0188A999A95F
:201F8000009759F00E940F0A19AA18AA1BAA1AAADF91CF911F910F9108950AA91BA981E003
:201FA0000115110589F3C8010E94110FF80114A616A6EACF982F803290F0877F823279F0AA
:201FC0009A3369F0892F8F7B8C3349F082EC890F823028F081E09C3519F080E0089581E0B8
:201FE0000895AF92BF92CF92DF92EF92FF920F931F93CF93DF93EC016A017B0159018B816C
:202000009C81AD81BE818C159D05AE05BF0590F49501B701A60189819A810E940606DF91C0
:20202000CF911F910F91FF90EF90DF90CF90BF90AF900895400F511F611D711D84179507E7
:20204000A607B70728F7CE010E94A2058111E0CFE6CFDC01DC96ED91FC91309731F08081A5
:20206000882351F0CF010C94E808FC0186AD97AD009711F00C94110F0895AF92BF92CF92B8
:20208000DF92EF92FF920F931F93DC01DC96ED91FC91DD97309731F1808140E050E0BA01A6
:2020A00083FF0CC0408D518D628D738D80899189A289B389481B590B6A0B7B0B4115B0E8FE
:2020C0005B076105710520F04FEF5FE760E070E0CA011F910F91FF90EF90DF90CF90BF9058
:2020E000AF900895DE96ED91FC9180E090E0309781F384A583FF23C02089318942895389E2
:202100006489758986899789A080B180C280D380E480F580068117810E941629F22FE32FB3
:202120002F3F3F4741055105610571058105910519F010F0FFEFEFE78F2F9E2FCACF20E026
:2021400030E040E050E060E070E080E090E0E6CFFC011382128288EE93E0A0E0B0E08483E4
:202160009583A683B78315AE14AE17AE16AE84E092E091838083089590E080E00895FC01E2
:2021800001900020E9F73197AF01481B590BBC0180E093E00C94AE018F929F92AF92BF92AC
:2021A0000F931F93CF93DF93CDB7DEB7A1970FB6F894DEBF0FBECDBF19A2423008F44AE00C
:2021C0008E010F5D1F4F842E912CB12CA12CA50194010E94BA28E62FB901CA01EA30F4F422
:2021E000E05DD801EE938D01232B242B252B79F790E080E0109719F0CD010E94BF10A19667
:202200000FB6F894DEBF0FBECDBFDF91CF911F910F91BF90AF909F908F900895E95CE1CFE9
:20222000CF93DF930E94BF10EC0184E292E00E94BF108C0F9D1FDF91CF910895CF92DF928D
:20224000EF92FF920F931F93CF93DF93FC0180E2DF011D928A95E9F7DB011696CD91DC9104
:202260001797D783C683558344835C96CD90DD90ED90FC905F97C086D186E286F386DE0156
:202280009B964F70552795E0440F551F9A95E1F7A40FB51F1B968C911B9783FD3FC087730F
:2022A00080831B969C911B97987111F488608083238381E082834BA15CA16DA17EA1448BA1
:2022C000558B668B778B54964D915C91559770E060E0BA01552744275A960D911C915B972B
:2022E00030E020E0402B512B622B732B448F558F668F778F5C968D919D910D90BC91A02D15
:20230000808F918FA28FB38F81E0DF91CF911F910F91FF90EF90DF90CF90089510821282FB
:2023200080E0F3CFFC01808181110EC080E2DF011D928A95E9F777836683DB0115968C91A6
:20234000803121F0803239F080E0089580E4808381E08283089580E8FACF2F923F924F92D5
:202360005F927F928F929F92AF92BF92CF92DF92EF92FF920F931F93CF93DF93EC014B0132
:202380007A018A8180FFD5C0888183FF16C0888D998DAA8DBB8D488959896A897B89841B3F
:2023A000950BA60BB70BA70170E060E0481759076A077B07A0F07C0112C086FF10C0EE817D
:2023C000FF818681978155E0880F991F5A95E1F728893989821B930B8E159F0560F3670163
:2023E000712C1E018CE0280E311C412C42E0542EC114D10409F4F3C0488959896A897B891D
:20240000EE81FF818A0111702881DB01CA0139E0B695A795979587953A95D1F726FF30C0DD
:20242000448D558D668D778D480F591F6A1F7B1FEE81FF810115110509F081C0C11482E074
:20244000D80608F47CC083A194A1A5A1B6A1481759076A077B0709F472C0C11484E0D80678
:2024600008F094C001E010E0940181A192A10E940606882309F45DC0A12C82E0B82E75C098
:20248000738078220115110581F471100EC0452B462B472B81F527FF29C0848D958DA68D81
:2024A000B78D8C879D87AE87BF87EE81FF814C855D856E857F8542505109610971098481B8
:2024C00004C0440F551F661F771F8A95D2F780899189A289B389840F951FA61FB71FAC0155
:2024E000BD01470D511D611D711DA2CF8C8D9D8DAE8DBF8DD6CF4C855D856E857F8523FFA4
:202500000CC08A8186FF09C04F5F5F4F6F4F7F4F4C875D876E877F87C8CF9101CF010E9461
:202520005F0887FD06C08111C0CF8881807D09F056C08981826089838FEF9FEF53C0C201DA
:20254000801B910B56018C159D0508F45C0120E0CF0180960E94B106009759F3BC01600F03
:20256000711FA501C4010E9441298A0C9B1C88899989AA89BB898A0D9B1DA11DB11D888B6F
:20258000998BAA8BBB8BCA18DB0832CF8601012F1127069530E020E0888186FD0EC08281DF
:2025A0008719990B092E000CAA0BBB0B80179107A207B30710F48C019D01D901C80129E0AC
:2025C000880F991FAA1FBB1F2A95D1F75C019401CF0180960E94F10F8111C7CFAACFC7019F
:2025E0008C199D09DF91CF911F910F91FF90EF90DF90CF90BF90AF909F908F907F905F90BA
:202600004F903F902F900895EF92FF920F931F93CF93DF931F92CDB7DEB77C01962FF70172
:2026200040895189628973898A019B0185E036952795179507958A95D1F70F7011F09111AC
:202640002BC041E050E0BE016F5F7F4FC7010E94AD11813051F090E080E00F90DF91CF918A
:202660001F910F91FF90EF900895F70180899189A289B3894F96A11DB11D808B918BA28B18
:20268000B38BF701868197818B96F0E20F9F90011124820F931FE1CF405E5F4F6F4F7F4FB3
:2026A000408B518B628B738BECCFCF93DF93EC01AB0170E060E085E0440F551F661F771F89
:2026C0008A95D1F7CE010E943F09882331F060E0CE01DF91CF910C94041390E080E0DF91B8
:2026E000CF9108952F923F924F925F926F927F928F929F92AF92BF92CF92DF92EF92FF929F
:202700000F931F93CF93DF93CDB7DEB7A6970FB6F894DEBF0FBECDBF4C016B01FA01DB0164
:202720008C91807DD1F480E0A6960FB6F894DEBF0FBECDBFDF91CF911F910F91FF90EF90A9
:20274000DF90CF90BF90AF909F908F907F906F905F904F903F902F900895D4018C91811144
:20276000E2CF868197810C966DE070E00E94A6286AA381858370442443948111460E7F012F
:202780009EA28DA240E050E0BA01C6010E943F09212C00E0512C10E0F7013A96FCA3EBA37F
:2027A000D60150968D909D90AD90BC90539760E0C6010E940413FC01892B09F4B4CF90819D
:2027C000953E09F4A1C0992309F4A9C0541408F4512C9E3209F4A1C085E0B694A794979482
:2027E00087948A95D1F7540183858F3009F068C011113BC0092F0F71BAA1B013D1CF96FF72
:20280000CFCF25841B2F013059F680E2F601DE01119601900D928A95E1F7F7018081918196
:2028200093838283F1E0F9A389A1181708F4B8CFB501CE0101960E9455133C01892B09F420
:202840006CC0D70114968D909C90312C632DC3010E946901D7011296ED91FC91E815F9053E
:2028600059F4892B09F49CCF58C00150901355C08585821541F251C08038910508F04DC096
:202880002FE9280F2A3108F480529F012F5F3F4FD70113963C932E93129790812FE9290FE9
:2028A0002A3108F49052981338C03394BDE03B12CDCFE9A1EF5FE9A3F1E0AF1AB108B4CFB5
:2028C00083FD2BC0112381F0013009F02CCFCF010E94DA08281227CF212FA501B6018DA164
:2028E0009EA10E941E1120CF4BE050E06BA17CA1CF010E943429892B09F052CFD701199631
:202900008C9180FD4DCFE8CF541438F45394992309F409CF953E09F05CCF10E041CF5414DF
:20292000A8F301CF2F923F924F925F926F927F928F929F92AF92BF92CF92DF92EF92FF92EE
:202940000F931F93CF93DF93CDB7DEB72E970FB6F894DEBF0FBECDBF9E878D877A87698700
:202960005C874B87DC019E968C919E9780FF45C186FD04C09C968C9183FF4FC0ED85FE859E
:20298000F081F983AD85BE851196BC91BA83ED85FE85F281FB83AD85BE851396BC91BC8314
:2029A000ED85FE85F481FD83AD85BE851596BC91BE83ED85FE85F681FF83AD85BE8517966F
:2029C000BC91B887ED85FE85208831884288538864887588868897882B853C8540E050E099
:2029E00060E070E080E090E0A980BA80CB80DC80ED80FE800F8118850E94012951016201D4
:202A0000730184010E941F2941F038F0C101A981BA818A1B9B0B9C878B878B849C842D84F3
:202A20003E84B8E12B0E311C8114910409F46FC1ED85FE85F081F983AD85BE851196BC9113
:202A4000BA83ED85FE85F281FB83AD85BE851396BC91BC83ED85FE85F481FD83AD85BE854A
:202A60001596BC91BE83ED85FE85F681FF83AD85BE851796BC91B887AD85BE859096ED9168
:202A8000FC91DF01AD5DBD4FCD90DD90ED90FC9089819A81AB81BC81C822D922EA22FB2244
:202AA000260191E05922C114D104E104F104F9F429813A814B815C816D817E818F8198856A
:202AC000A0E00E94282909F072C0AD85BE859C968C9186FF65C0E15EFD4F80819181A28129
:202AE000B381ED85FE85808F918FA28FB38FED85FE8580A191A1FC01E25DFD4FA08149E0F1
:202B0000F694E794D794C7944A95D1F7ED85FE85408D518D628D738D4250510961097109E4
:202B20000A2E04C0440F551F661F771F0A94D2F74C0D5D1D6E1D7F1DFC01E95EFD4F008145
:202B4000118122813381400F511F621F731F4114510409F05AC08114F2E09F0608F455C0E0
:202B6000FC010381148125813681401751076207730709F44AC08114F4E09F0608F09AC0E9
:202B800001E010E029853A85DC0111968D919C910E940606882389F1612C82E0782E4BC0B5
:202BA000ED85FE85848D958DA68DB78D9ACFAD85BE8558964D915D916D917C915B979E96AD
:202BC0008C919E9786FF0AC04F5F5F4F6F4F7F4FFD01408F518F628F738F89CF9101CF0112
:202BE0000E94270B87FD09C0811181CFAD85BE859C968C91807509F08AC0ED85FE8585A5B7
:202C0000826085A78FEF9FEF86C020E032E02419350934012815390508F4390120E00E943F
:202C2000B106009751F3BC01640D751DA30189859A850E944129E985FA85E60DF71DFA87F0
:202C4000E987930140E050E060E070E080E090E0AD85BE85AC901196BC9011971296CC9070
:202C600012971396DC9013971496EC9014971596FC90159716960C91169717961C9117973A
:202C80000E9401292C9311963C93119712964C93129713965C93139714966C93149715961A
:202CA0007C93159716968C93169717969C9386189708BACE2401452C55244694712C612C2D
:202CC00001E010E020E030E004C0000F111F221F331FAA95D2F70C191D092E093F09401655
:202CE00051066206730610F4930182016801790129E0CC0CDD1CEE1CFF1C2A95D1F73601E1
:202D000029853A850E94F10F811195CF76CF8B859C85881999092E960FB6F894DEBF0FBE76
:202D2000CDBFDF91CF911F910F91FF90EF90DF90CF90BF90AF909F908F907F906F905F9032
:202D40004F903F902F9008956F927F928F929F92AF92BF92CF92DF92EF92FF920F931F933B
:202D6000CF93DF93CDB7DEB7A0970FB6F894DEBF0FBECDBF7C015B016A01FC0184A58823D3
:202D8000D1F0F70114A616A610E0812FA0960FB6F894DEBF0FBECDBFDF91CF911F910F91C7
:202DA000FF90EF90DF90CF90BF90AF909F908F907F906F900895FB0184A5807511F3452B22
:202DC00059F000E010E020E030E040E050E060E070E0C5010E943E0D10E04E01F1E28F0E88
:202DE000911C6624639481E4782E0FE240E250E0BE016F5F7F4FC5010E949214809709F0DE
:202E0000C0CF898187FD05C0882309F4BACF10E0EDCF111138C0853849F7F701802F119292
:202E20008A95E9F78A81F70183A79D81892F877394FF27C084A7F50180A191A1F70191A37C
:202E400080A3F501808D918DA28DB38DF70182A393A3A4A3B5A3F50180819181A281B3816D
:202E60008097A109B109F70186A397A3A0A7B1A7F50186A586FB882780F9F70182A711E001
:202E8000B5CF8860D7CF803C09F053C0F70166A68A8181FD76A68985F701808B8A85818B83
:202EA0008B85828B8C85838B8D85848B8E85858B8F85868B8889878B8D899E89AF89B88D90
:202EC000848F958FA68FB78F898D80878A8D81878B8D82878C8D83878D8D84878E8D858774
:202EE0008F8D868788A18787C114D10461F4F70186A581FF4ACF84A5982F917109F041CFBC
:202F0000806284A742CFF60180819181938382832C81868197812817190609F078CF11E013
:202F2000208531858D819E812817390709F06FCF5DCF813C09F06BCFF60124813581BE0126
:202F40006D5F7F4FFB0181919191BF01F601A281B381A217B30759F4892B09F058CFF6010E
:202F6000828193818217930709F040CFC0CFAD014F5F5F4F538342834C918F37910508F09A
:202F800046CF5FE9540F5A3108F440525FE9580F5A3108F4805284133ACF8616970691F6F0
:202FA000DECF3F924F925F926F927F928F929F92AF92BF92CF92DF92EF92FF920F931F9393
:202FC000CF93DF93CDB7DEB7C454D1090FB6F894DEBF0FBECDBF8C017B010E94B90FE091E7
:202FE0003D06F0913E06309709F44DC1D8011C9211961C92119712961C921297D1961C935E
:203000000E93D09719821A821B82E55DFD4F8081807D09F46DC0D7018C919E2E8F2E8F32DF
:2030200041F57D018D918F32E1F366817781811156C0C8010E949211882309F459C081E072
:20304000CC5BDF4F0FB6F894DEBF0FBECDBFDF91CF911F910F91FF90EF90DF90CF90BF9089
:20306000AF909F908F907F906F905F904F903F90089580E3682E712C6C0E7D1EB5E16B0EC1
:20308000711CFE0131966F01570195012F5F3F4FD5018C91803299F1B9AAA8AA1FAA1EAAEE
:2030A000C501FC0151907F01552059F1FFE25F1641F157FC1DC0852D0E94DA0F811118C0CE
:2030C000C7018A199B092EE2521639F040E2541621F09FAB8EABFDAAECAAC701E2CFCE019B
:2030E00001966C010E9492119C2C8D2C8111C1CFD801D1961C921E92D09780E0A1CF5901B5
:20310000C4CF2EA93FA9215031092F3F310580F77C01DC012C9101962032D1F32F32C1F3BE
:203120002CA93DA9FE01FA96CF0140E24193E615F705E1F771E0F50140814E3209F470E0DB
:20314000F5014FEFA41AB40A40814E32C9F3A90141505109E417F50720F4DA016C916E32AA
:20316000B9F7B12C67E0562EA0E0A12CB8E04B2EE217F30708F049C060816E3251F44E177A
:203180005F0779F46AE0562EA8E0B0E14B2E3196EFCF6232A1F06C3791F0B5EAB60FB330E7
:2031A00070F0B6EDB60FB63010F46D3241F4B6ECB60FB63020F0BFEDB60FBE3530F0607CCC
:2031C000603809F036C170E0E2CF5A1648F4BAE05B16D1F04E175F07B8F0FA013197F3CFF6
:2031E000BFE9B60FBA3108F029C16052B428332433943A0EA80FB92FB11D6C9366E0631577
:2032000008F038AEA32DC3CF70E02AAD203209F46FCF772309F1AB2011F082E0B82EB9AEAB
:20322000F7018081AE01405D5F4F692D782D882331F1C8010E947213882309F459CF80E271
:20324000F801D60101900D928A95E1F7C8010E940F0A9C2C8D2C18CF21E029AF28AD30E0CD
:20326000820F931F4EE7DC014C93EBE3F0E0EC0FFD1F2E0F3F1F81E3D9018C93D1CFC80104
:203280000E947213D9CEC0903F06D0904006C114D10409F432CFF80114A615A616A613AB95
:2032A00002AB1DA61EA61FA6F601E55AFD4F8081807509F4B8C0D7018C91F7018F3269F120
:2032C000B1EDCB1ABDEFDB0A570195012F5F3F4FF5018081803209F44FC0B9AAA8AABDAAFF
:2032E000ACAA7F01D7017D904D01772009F44CC0BFE27B1609F442C0872D0E94DA0F811123
:2033000092C077FC90C0EEE27E1629F0F0E27F1611F09DAA8CAAF401E4CF7F0121912F32FB
:20332000E1F3E1EDCE1AEDEFDE0AD60190968D919C91211112C02FE2F80111922A95E9F7A7
:2033400020E4D8019C962C939C9791969C938E93909781E09E968C9373CEFE0131962FE202
:20336000DF011D922A95E9F720E42DA79AA389A381E08FA76F01A8CF5901A7CF7F018191FE
:203380008032E1F38F32D1F3BBAAAAAA8CA99DA950E040E0EAA9FBA9E817F907B1F09F0127
:2033A0002F5F3F4F3BAB2AAB30812FE9230F2A3108F4305240FB5795479557F9430F511D4F
:2033C00040FB5795479557F9E5CF8A199B099FAB8EAB59AF48AF01978F3F910520F5D70134
:2033E0008C91AE01405D5F4FB6018823B9F0C8010E94A4168823B9F08FE2F801DE01119642
:2034000001900D928A95E1F7C8010E94110FF80114A616A6CE0101966C0156CFC8010E9428
:20342000A41681110CCED801D3961C921E92D29764CE70E06FE55A1608F4C9CEBFEBB60F15
:20344000BA3108F0D4CEA428D2CE4F925F926F927F928F929F92AF92BF92CF92DF92EF9260
:20346000FF920F931F93CF93DF931F92CDB7DEB7FC0104AD15AD0115110599F1F8018088A2
:203480009188A288B388C484D584E684F78441E050E0BE016F5F7F4FC8010E94AD110197BB
:2034A000E9F4898190E0F801808A918AA28AB38AC486D586E686F7860F90DF91CF911F9181
:2034C0000F91FF90EF90DF90CF90BF90AF909F908F907F906F905F904F9008958FEF9FEF0F
:2034E000E2CF06AD17AD8FEF9FEF0115110521F3F801408051806280738084809580A680BA
:20350000B780C08CD18CE28CF38C41E050E0BE016F5F7F4FC8010E949214019781F489810A
:2035200090E0F801408251826282738284829582A682B782C08ED18EE28EF38EBDCF8FEF8E
:203540009FEFEFCFCF93DF931F92CDB7DEB7FC0184AD95AD009761F041E050E0BE016F5F4B
:203560007F4F0E94AD11019739F4898190E006C086AD97AD009731F48FEF9FEF0F90DF91CA
:20358000CF91089541E050E0BE016F5F7F4F0E949214E9CF2F923F924F925F926F927F920C
:2035A0008F929F92AF92BF92CF92DF92EF92FF920F931F93CF93DF93CDB7DEB762970FB644
:2035C000F894DEBF0FBECDBF7A8769875E874D87DC01D0960D90BC91A02DB88BAF871097A5
:2035E00009F483C112968C9181FFBCC083FDADC0ED85FE85AF0170E060E0EF85F8898089A9
:203600009189A289B38980959095A095B09584179507A607B70708F4A5C0CD84DE84442457
:203620004A94542C32013C96FC87EB87EF85F88980889188A288B388C114D10409F428C127
:2036400026803780D1011396FC90B501A40199E076956795579547959A95D1F7F4228401D1
:203660001170F11023C044855585668577850115110509F0D9C3411551056105710509F415
:20368000A9C0228126FF76C0808D918DA28DB38D88169906AA06BB0608F06CC04F5F5F4FFB
:2036A0006F4F7F4F4487558766877787AF85B8891696ED91FC9117971C964D915D916D9196
:2036C0007C911F974250510961097109848104C0440F551F661F771F8A95D2F780899189A1
:2036E000A289B389840F951FA61FB71FAC01BD014F0D511D611D711D0115110509F0A9C3AF
:20370000C114B2E0DB0608F4A4C383A094A0A5A0B6A021A032A0C11424E0D20608F07EC092
:20372000481559056A057B0529F410A243A254A265A276A229853A85C1010E944E05882347
:2037400089F0E12C52E0F52EC8C3AF85B88958964D915D916D917C915B97CD010E943F091F
:20376000811146CFEF85F8898181816081831E861D86A0C02B853C85C1010E945F0887FD5F
:20378000F1CF811106C08F8598890E941F0A882349F3AF85B8891696ED91FC9117971C969E
:2037A0004D915D916D917C911F974250510961097109848104C0440F551F661F771F8A95E2
:2037C000D2F780899189A289B389480F591F6A1F7B1F96CFEF85F889848D958DA68DB78DA0
:2037E0000097A105B10589F4CF010E941F0A882309F4B8CFEF85F88984859585A685B78510
:20380000848F958FA68FB78F51CFEF85F88984879587A687B7874ACF21E042C38601012F79
:203820001127069530E020E082818F19990B092E000CAA0BBB0B081719072A073B0710F4E2
:20384000D901C8018C019D010F2EF9E0000F111F221F331FFA95D1F7F02D78018C0184169E
:203860009506A606B70670F0840F951FA61FB71F88169906AA06BB0628F410A243A254A2AB
:2038800065A276A229853A85C1010E94CC0422C3EF85F889808D918DA28DB38D88159905B9
:2038A000AA05BB0538F4808E918EA28EB38E8281806882838D859E8562960FB6F894DEBFC4
:2038C0000FBECDBFDF91CF911F910F91FF90EF90DF90CF90BF90AF909F908F907F906F90A9
:2038E0005F904F903F902F900895DC01D2960D90BC91A02DBA8BA98B109709F438CF9E967B
:203900008C9181FF0CC183FDEBC0ED85FE85FC87EB8729893A89285E3F4F388B2F87E989B4
:20392000FA89208031804280538064807580868097802B853C85232B09F435C200A0F1A143
:20394000E02DDF01AD5DBD4FCD90DD90ED90FC90C220D320E420F520160131E03322C11451
:20396000D104E104F10409F056C0A989BA8958968D909D90AD90BC905B9781149104A10492
:20398000B10409F4F0C09E968C919E9786FFDBC05C964D905D906D907C905F9718962C91F9
:2039A000189719963C9119971A964C911A971B965C911B971C966C911C971D967C911D97C8
:2039C0001E968C911E971F969C91AFEF0E940A29E25DFD4F0081075F0E94E62829833A8381
:2039E0004B835C836D837E838F83988729813A814B815C81420E531E641E751E84149504E3
:203A0000A604B70408F491C089899A890E94830C882309F484C0A989BA899096ED91FC91FC
:203A2000DF01A25DBD4F2C9129834601570149E0B694A794979487944A95D1F7A989BA8983
:203A400058964D905D906D907C905B97B2E04B1A51086108710804C0440C551C661C771CE7
:203A60002A95D2F7480C591C6A1C7B1CDF01A95EBD4F8D919D910D90BC91A02D480E591E15
:203A80006A1E7B1E2114310409F08EC02B853C85211542E0340708F487C0C380D480E58011
:203AA000F680818192812115344008F033C14C145D046E047F0441F410824FEF5FEFBA0121
:203AC000438354836583768329853A85B301A2010E944E05882319F1812C82E0982EC4C0A1
:203AE000A989BA8950960C91509751961C91519752962C91529753963C91539754964C9176
:203B0000549755965C91559756966C91569757967C915797CD010E943E0D8111F6CEE989B5
:203B2000FA8985A5816085A722CE3FEF831A930AA30AB30AA989BA8958968D929D92AD9219
:203B4000BC925B9768CF2F853889B501A401CF010E94270B082E000C990B97FDE0CF892B9D
:203B600009F452CF58CFE989FA89848D958DA68DB78D0097A105B10581F4CF010E94830CF8
:203B8000882369F2E989FA89808D918DA28DB38D848F958FA68FB78F3ECFE989FA89808FCD
:203BA000918FA28FB38F37CF80E092E0821993098B849C848815990508F44C012114310446
:203BC00009F0A6C0A989BA892C9111963C91119712964C91129713965C91139714966C9123
:203BE000149715967C9115975096AC9050975196BC9051975296CC9052975396DC90539726
:203C00005496EC9054975596FC90559756960C91569757961C91579716968C9116971796CF
:203C20009C910E941F2908F473C025E0B301A201CF010E94B106009709F471CFA401698552
:203C40007A85820D931D0E944129280C391C2114B2E03B0649F4E989FA8980A191A10E9462
:203C6000A205882309F45BCF940140E050E060E070E080E090E0A989BA89AC901196BC90E2
:203C800011971296CC9012971396DC9013971496EC9014971596FC90159716960C91169766
:203CA00017961C910E94012929013A01382EE989FA89208351824283738264837583868306
:203CC000978329853A85280D391D3A8729874B855C85481959095C874B87A088B188C2888D
:203CE000D388E488F588068917899201A3010E941F2909F008F413CE86A5806886A7408A50
:203D0000518A628A738A648B758B368A978B07CE21E08CCF0B851C85012F1127069530E099
:203D200020E041E050E060E070E0098004C0440F551F661F771F0A94D2F749835A836B8375
:203D40007C83481959096A097B09041715072607370710F4B901A8014A015B0129E0880C5D
:203D6000991CAA1CBB1C2A95D1F78A01C414D504E604F70488F0440D551D661D771DC4161D
:203D8000D506E606F70640F410822FEF3FEFA901238334834583568329853A85B301A201E1
:203DA0000E94CC045ECFA989BA8918962C91189719963C9119971A964C911A971B965C91CD
:203DC0001B971C966C911C971D967C911D971E968C911E971F969C911F9751016201730114
:203DE00084010E941F2908F065CD18962C92189719963C9219971A964C921A971B965C9204
:203E00001B971C966C921C971D967C921D971E968C921E971F969C921F979E968C919E9772
:203E200080689E968C9346CDF1014250510961097109848104C0440F551F661F771F8A95A8
:203E4000D2F780899189A289B389480F591F6A1F7B1F80E092E0801B910B76018C159D055A
:203E600008F47C010115110509F0D6CCAF85B88950968D909D90AD90BC90539758968D91DE
:203E80009D910D90BC91A02D88169906AA06BB0630F4AF85B88912968C9185FFBDCC25E01F
:203EA000CF0180960E94B106009709F45BCCA70169857A85800F911F0E9441290E0D1F1DD1
:203EC0000115124051F4EF85F8898681978180960E94A205882309F445CCEF85F88980890B
:203EE0009189A289B3898E0D9F1DA11DB11D808B918BA28BB38B29853A852E0D3F1D3A8707
:203F00002987CE18DF0892CB0C960C94CA1ACF93DF931F92CDB7DEB7698341E050E0BE0107
:203F20006F5F7F4F0C960E94CA1A0F90DF91CF9108958F929F92AF92BF92CF92DF92EF927A
:203F4000FF920F931F93CF93DF938C01B62E10923E0610923D061092DD038FEF9FEFDC0101
:203F60008093E0039093E103A093E203B093E30310920A06109238061092390610923A06AE
:203F80008DED93E09093400680933F0610930906009308061093DF030093DE03662309F4A1
:203FA000DDC020E040E050E0BA010E94B106009709F4D8C0FC01E254FE4F2481222309F46D
:203FC000D1C020812F7709F0CDC08A539E4FDC01CD90DD90ED90FC9020E0B701A6018DED30
:203FE00093E00E94B106EC01009709F4BBC045E050E067E272E003960E944A29892B09F0AE
:20400000B1C0FE01E459FF4F8081893009F0AAC00DED13E07C9780819181A281B3818C0D85
:204020009D1DAE1DBF1D8093EC059093ED05A093EE05B093EF05349680819181A281B38175
:204040008093F0059093F105A093F205B093F305349680819181A281B3818C0D9D1DAE1D88
:20406000BF1D8093F4059093F505A093F605B093F705349680819181A281B3818093F8058A
:204080009093F905A093FA05B093FB05349680819181A281B3818093FC059093FD05A093EA
:2040A000FE05B093FF05C359DF4F288120930B06275F81E090E0A0E0B0E004C0880F991F85
:2040C000AA1FBB1F2A95D2F78093040690930506A0930606B09307060197A109B1098093CC
:2040E000000690930106A0930206B09303061092E8051092E9051092EA051092EB0540E0A7
:2041000050E0BA01C8010E94FB06C0E4C0930A068CE096E00E94110FECE0F6E08FE2DF01AA
:204120001D928A95E9F7C093380610932D0600932C0681E080933A068091FC029091FD02C2
:20414000892B21F41093FD020093FC028DED93E09093FF028093FE0281E01EC1C12CD12C15
:2041600076013ACF1092400610923F061092E2031092FD038FEF9FEFDC01809300049093A4
:204180000104A0930204B0930304109208061092090610920A068DED93E090933E0680931D
:2041A0003D061093DE030093DD0381E090E0A0E0B0E08093E5039093E603A093E703B0937D
:2041C000E8031093FF030093FE03BB2009F443C020E040E050E0BA018DEF93E00E94B1068D
:2041E000009709F4D4C0FC01E254FE4F2481222309F4CDC020812F7709F0C9C08A539E4F10
:20420000FC01C080D180E280F38020E0B701A6018DEF93E00E94B106FC01892B09F4B7C06F
:204220008089823009F0B3C0838594858115924009F0ADC095859093DF038FEF890F809320
:20424000E003C0E081E0981751F0CF5FC93009F4E9C0880FF8CFC12CD12C7601D6CFC09306
:20426000E10386899789B0E0A0E08093E9039093EA03A093EB03B093EC03892B8A2B8B2B9A
:2042800061F484A195A1A6A1B7A18093E9039093EA03A093EB03B093EC03868597859701AE
:2042A0008601080F191F211D311D0093F1031093F2032093F3033093F403818992899093D2
:2042C000E4038093E3034091E9035091EA036091EB037091EC034A015B01880C991CAA1CEE
:2042E000BB1C800E911EA21EB31E8092F9039092FA03A092FB03B092FC039C01B5E0220F18
:20430000331FBA95E1F721503E4F232F33272695820E931EA11CB11C8092ED039092EE03DF
:20432000A092EF03B092F0030389148930E020E0011511052105310521F400A111A122A138
:2043400033A1C818D908EA08FB08C00ED11EE21EF31E04C0F694E794D794C794CA95D2F74E
:20436000D701C6010196A11DB11D8093F5039093F603A093F703B093F80385EFC8168FE028
:20438000D806E104F104A8F48CE08093E20310923E0610923D0680E0DF91CF911F910F911A
:2043A000FF90EF90DF90CF90BF90AF909F908F90089580E1A5EFCA16AFEFDA06E104F1047B
:2043C00068F084A595A5A6A5B7A58093F9039093FA03A093FB03B093FC0380E28093E2037F
:2043E0004093040450930504609306047093070488E096E00E940F0A6DED73E088E096E0C7
:204400000E949211882319F28091FA029091FB02892B09F09BCE8DED93E09093FB02809340
:20442000FA0294CE88E08093E103B1CF2F923F924F925F926F927F928F929F92AF92BF92E5
:20444000CF92DF92EF92FF920F931F93CF93DF93CDB7DEB7C85ED1090FB6F894DEBF0FBE7C
:20446000CDBFCF51DF4F99838883C15ED040CD51DF4F79836883C35ED040F1E8AF2EB12C15
:20448000AC0EBD1E2CE0A20EB11CCB51DF4FA882C55ED040CA51DF4FB882C65ED0407E0121
:2044A00041ECE40EF11CCB010196C951DF4F99838883C75ED040CE018F579F4F0E94A810CC
:2044C000C5010E94B90FCF51DF4FA881B981C15ED040DC960D911C910115110509F49BC08B
:2044E000C357DF4F1882CD58D040C257DF4F1882CE58D040C157DF4F1882CF58D040C35460
:20450000DF4FB982A882CD5BD040F8018081807D71F080899189A289B3898F719927AA275D
:20452000BB27D12CC12C892B8A2B8B2B41F0C354DF4F19821882CD5BD04038C0D12CD801DF
:2045400050964D905D906D907C90539760E0C8010E940413009759F3FC012081222339F304
:204560002E3261F3253E51F3338533FD4BC0DD2021F00E94DA088C11DACFB301A201E5E0F9
:204580007695679557954795EA95D1F72D2DB801CB51DF4F8881C55ED040CA51DF4F98810A
:2045A000C65ED0400E941E11882309F2C354DF4F88819981CD5BD040892B09F06DC0C154C1
:2045C000DF4F88819981CF5BD040892B09F064C0C851DF4F0FB6F894DEBF0FBECDBFDF9181
:2045E000CF911F910F91FF90EF90DF90CF90BF90AF909F908F907F906F905F904F903F90A8
:204600002F9008953F3009F099CF26FF98CF2F71D22EC58494CFCF51DF4FA881B981C15EC6
:20462000D040DE96ED91FC91309709F4BFCFC754DF4F1882C95BD040C654DF4F1882CA5B7B
:20464000D040C554DF4F1882CB5BD040C154DF4FB982A882CF5BD04084A5807539F4C154F1
:20466000DF4F19821882CF5BD040A0CF20812F7130E040E050E060E070E080E090E0A0E0AD
:204680000E94282961F750E040E0BF01C5010E94A41681118BCFE3CF10E0CD51DF4FE8815A
:2046A000F981C35ED0401E171F063CF469E080E093E00E9444021F5FF0CF1982C354DF4FA4
:2046C00008811981CD5BD0400115110509F414C1D7011C9211961C92119712961C92F801AF
:2046E0008081882309F44FC19381911189C0807C89F18FE289831A82CE0101960E94BF109C
:20470000C354DF4FE881F981CD5BD040309709F43CC18081807D882309F442C18DE292E0EE
:204720000E941011C951DF4F68817981C75ED040CE018F579F4F0E941622CB51DF4F888186
:20474000C55ED040CA51DF4F9881C65ED0400E94B90FB1CE448955896689778986819781EE
:2047600020E080960E94B106009709F40CC1F801A481B581AF70BB2735E0AA0FBB1F3A959D
:20478000E1F7A80FB91F109709F4FDC09D0110E008E070E0F90180817830B9F4803241F157
:2047A00000E16EE2812F90E0AC014F5F5F4F4038510508F0E8C01F5F41E050E04C0F5D1F8B
:2047C000840F951FFC01608310C02F5F3F4F682F9FEB980F9A3138F41C969C911C979023C2
:2047E00011F0605EDFCF8032E9F67F5F7C3091F6E1E0F0E0EC0FFD1FE10FF11D10827CCF27
:2048000080859185A285B385892B8A2B8B2B09F04FC066817781C7010E949211882309F463
:20482000B2C066246394712CD12CC12CD80113968C911397861508F458C014966D917C9151
:2048400066197709C7010E9455134C01009709F49AC0FC0183858F3009F095C080818F7139
:20486000681291C022242394312C2C0E3D1E2C0C3D1C512C652DC4010E9469010097A9F1DC
:20488000FFEFCF1ADF0A20E8C216D10408F07BC08F37910510F08FE390E0D1018D931D0122
:2048A0005394BDE05B12E6CFEFEF6E1A7E0ABECFD701E0E21D92EA95E9F780E1D7018C93D7
:2048C00081E012968C931297F8018681978117969C938E93169780859185A285B385F701D3
:2048E000848F958FA68FB78F9CCFE1E0F0E0EC0FFD1FEC0DFD1D82CFC154DF4FC880D980AB
:20490000CF5BD040C114D10409F4F6CED6019C968C918823C1F182E0982E10E000E0F60180
:2049200083A5891548F140E0692DC6010E94880E009749F1DC012C91213C29F5FC01329618
:20494000A1E0B0E0AC0FBD1FA00FB11F8096219131912115310581F00F5F1F4F003811059F
:2049600090F42F37310510F02FE330E02D93E817F90769F79394D3CFE1E0F0E0EC0FFD1F65
:20498000E00FF11F3BCF1982B7CEC154DF4FE881F981CF5BD040309719F084A58075BBCE17
:2049A0008FE292E00E94BF10C354DF4FE881F981CD5BD040309781F0808D918DA28DB38D71
:2049C0001C012D014AE0C201B1010E94CC1084E292E00E94BF10B1CEC154DF4FE881F98181
:2049E000CF5BD040309729F02088318842885388E9CF212C312C412C512CE4CF1F920F9246
:204A00000FB60F9211240BB60F922F933F934F935F936F937F938F939F93AF93BF93EF93B3
:204A2000FF9380E093E00E942202FF91EF91BF91AF919F918F917F916F915F914F913F91AB
:204A40002F910F900BBE0F900FBE0F901F9018951F920F920FB60F9211240BB60F922F93B6
:204A60008F939F93EF93FF93E0911003F09111038081E0911603F091170382FD1DC0908122
:204A8000809119038F5F8F7320911A03821741F0E0911903F0E0E050FD4F958F8093190335
:204AA000FF91EF919F918F912F910F900BBE0F900FBE0F901F9018958081F2CF1F920F92F3
:204AC0000FB60F9211242F933F938F939F93AF93BF938091F2029091F302A091F402B0913C
:204AE000F5023091F10223E0230F2D3758F50196A11DB11D2093F1028093F2029093F3023D
:204B0000A093F402B093F5028091F6029091F702A091F802B091F9020196A11DB11D809372
:204B2000F6029093F702A093F802B093F902BF91AF919F918F913F912F910F900FBE0F907B
:204B40001F90189526E8230F0296A11DB11DD2CFE0E0F3E01382128288EE93E0A0E0B0E03F
:204B600084839583A683B78386E192E09183808385EC90E09587848784EC90E097878687B0
:204B800080EC90E0918B808B81EC90E0938B828B82EC90E0958B848B86EC90E0978B868BE8
:204BA000118E128E138E148E10923E0610923D061092400610923F06109242061092410606
:204BC000109244061092430680E580934506109246061092470610924806109249061092DB
:204BE0004A0610924B0610924C0610924D068AE280934E0610924F061092500610925106CE
:204C0000109252068DE993E00C94A810CF93DF93CDB7DEB7C05CD1090FB6F894DEBF0FBEBB
:204C2000CDBF789484B5826084BD84B5816084BD85B5826085BD85B5816085BD80916E00EB
:204C4000816080936E001092810080918100826080938100809181008160809381008091AF
:204C600080008160809380008091B10084608093B1008091B00081608093B00080919100CF
:204C800082608093910080919100816080939100809190008160809390008091A1008260AE
:204CA0008093A1008091A10081608093A1008091A00081608093A00080912101826080938C
:204CC0002101809121018160809321018091200181608093200180917A00846080937A0026
:204CE00080917A00826080937A0080917A00816080937A0080917A00806880937A0010921F
:204D0000C10085E30E948F010E949F03E0911003F091110382E08083E0910C03F0910D0365
:204D20001082E0910E03F0910F0380E1808310921803E0911403F091150386E08083E091B0
:204D40001203F0911303808180618083E0911203F0911303808188608083E0911203F091B2
:204D60001303808180688083E0911203F091130380818F7D808361E085E30E94E20282E370
:204D800092E00E94BF1010924C0610924F0610925006109251061092520610924E0685E3FC
:204DA00080934D060E948F0161E080914D060E94E20282E580934506109246060E949F0339
:204DC00081E080934C0680914F06811104C083E496E00E94E90361E080914D060E94E202BB
:204DE0001AE00E94F7031150E1F760E080914D060E94E2020E9493036053784F7A8369831F
:204E000020E030E0A90160E083E496E00E948104082F813061F1CE0101960E94D2038823D2
:204E200079F381E080934E0683E496E00E941D0483E496E0909342068093410680914E0697
:204E4000811110C061E083E496E00E94991F811178C060E080914106909142060E94991F53
:204E600081116FC08BE492E00E941011FFCF2AEA31E040E050E068E083E496E00E9481043E
:204E800082FD11C014E00E94F703809351061150D1F78A3A29F1CE0101960E94D203882339
:204EA00031F386E0BFCF11E0C12CD12C760120E030E0A90167E383E496E00E948104A701D8
:204EC000960169E283E496E00E948104882379F0CE0101960E94D203882349F387E1A2CF3B
:204EE00012E0C12CD12CE12C80E4F82EE0CF1230C9F420E030E0A9016AE383E496E00E940B
:204F00008104882311F082E18DCF0E94F703807C803C09F413E00E94F7030E94F7030E9483
:204F2000F703012F83E496E00E941D0480E58093450681E0809346060093520610924B0646
:204F400077CF87E692E00E9410118DE792E00E941011CE0101967C010E94A8106DE272E0E2
:204F6000CE010D960E94D1178B819C819093A00380939F038D819E81AF81B8858093A10340
:204F80009093A203A093A303B093A40389859A85AB85BC858093A5039093A603A093A70384
:204FA000B093A8031092DA031092D9031092DC031092DB03EDADFEAD309709F44DC010924D
:204FC000A9031092AA031092AB0389EA93E09093DA038093D903E817F90739F080E2A9EA94
:204FE000B3E001900D928A95E1F78091D9039091DA03892B09F048C08091DB039091DC0368
:20500000892B09F041C080E992E00E941011CE018F579F4F0E94A8106FEA72E081E890E0C3
:205020008C0F9D1F0C960E94D117C354DF4F88819981CD5BD040892B91F5C154DF4F8881C7
:205040009981CF5BD040892B51F58AEB92E00E9410110E94B102FDCF2196EEADFFAD219781
:20506000309719F21092D5031092D6031092D70389EA93E09093DC038093DB03E817F90715
:2050800009F4B3CF8FE2ABCF70E060E08DE993E00E94162289EA93E00E94B90FB8CF0E94DA
:2050A0006E034B015C0110E000E0C354DF4F88819981CD5BD0400097A9F040E850E0B70126
:2050C0000E94AD1118161906DCF4F70121912A3011F40F5F1F4F9F012E193F0928173907C0
:2050E000ACF3E3CFC154DF4F88819981CF5BD040009731F040E850E0B7010E949214E2CFFE
:2051000081E890E08C0F9D1F0C960E94B90F0E946E036B017C01C818D908EA08FB088FEC26
:2051200092E00E94BF10B801110F880B990B4AE00E94CC1085ED92E00E94BF104AE0C7018D
:20514000B6010E94CC1080EE92E081CFAA1BBB1B51E107C0AA1FBB1FA617B70710F0A61B77
:20516000B70B881F991F5A95A9F780959095BC01CD010895A1E21A2EAA1BBB1BFD010DC0EC
:20518000AA1FBB1FEE1FFF1FA217B307E407F50720F0A21BB30BE40BF50B661F771F881FAB
:2051A000991F1A9469F760957095809590959B01AC01BD01CF010895EE0FFF1F881F8BBF75
:2051C0000790F691E02D199497FD1094002E083098F00850232F342F452F562F672F782F8E
:2051E000892F912DF4CF1594979587957795679557954795379527950A95AAF71124002D8B
:2052000008952A0D3B1D4C1D5D1D6E1D7F1D801F911F08950024A7FD00942A0F301D401D2D
:20522000501D601D701D801D901D08952A193B094C095D096E097F09800B910B08952A15CC
:205240003B054C055D056E057F058007910708950024A7FD00942A173005400550056005D7
:205260007005800590050895FB01DC0104C08D910190801921F441505040C8F7881B990BE1
:205280000895FB01DC0102C001900D9241505040D8F70895FB01DC014150504030F08D91E1
:2052A0000190801919F40020B9F7881B990B0895F894FFCF00000000871F841FBC1029105B
:2052C0003D10A21A251A000000004402AE01DB0191020C02EA01FE010D0A0045584641549B
:2052E000002F00090900496E697469616C697A696E6720534420636172642E2E2E20004324
:2053000061726420696E697469616C697A6174696F6E206661696C65642100696E6974698B
:20532000616C697A6174696F6E20646F6E652E0A0046696C6573206F6E207468652063616F
:2053400072643A004661696C656420746F206F70656E20726F6F74206469726563746F72C3
:205360007921005343414C45532E464B42004661696C656420746F206F70656E2066696C62
:20538000652100526561642000206C696E657320696E2000206D6963726F7365636F6E64E3
:2053A000732E0000FFFFFFFFFFFFFFFFFFFFFFFFFFFFFFFFFFFFFFFFFFFFFFFFFFFFFFFF68
:2053C000FFFFFFFFFFFFFFFFFFFFFFFFFFFFFFFFFFFFFFFFFFFFFFFFFFFFFFFFFFFFFFFFED
:2053E000FFFFFFFFFFFFFFFFFFFFFFFFFFFFFFFFFFFFFFFFFFFFFFFFFFFFFFFFFFFFFFFFCD
:20540000726563746F7279210000FFFFFFFFFFFFFFFFFFFFFFFFFFFFFFFFFFFFFFFFFFFF79
:20542000FFFFFFFFFFFFFFFFFFFFFFFFFFFFFFFFFFFFFFFFFFFFFFFFFFFFFFFFFFFFFFFF8C
:20544000FFFFFFFFFFFFFFFFFFFFFFFFFFFFFFFFFFFFFFFFFFFFFFFFFFFFFFFFFFFFFFFF6C
:20546000FFFFFFFFFFFFFFFFFFFFFFFFFFFFFFFFFFFFFFFFFFFFFFFFFFFFFFFFFFFFFFFF4C
:20548000FFFFFFFFFFFFFFFFFFFFFFFFFFFFFFFFFFFFFFFFFFFFFFFFFFFFFFFFFFFFFFFF2C
:020000040003F7
:20E000000D9489F10D94B2F10D94B2F10D94B2F10D94B2F10D94B2F10D94B2F10D94B2F109
:20E020000D94B2F10D94B2F10D94B2F10D94B2F10D94B2F10D94B2F10D94B2F10D94B2F1C0
:20E040000D94B2F10D94B2F10D94B2F10D94B2F10D94B2F10D94B2F10D94B2F10D94B2F1A0
:20E060000D94B2F10D94B2F10D94B2F10D94B2F10D94B2F10D94B2F10D94B2F10D94B2F180
:20E080000D94B2F10D94B2F10D94B2F10D94B2F10D94B2F10D94B2F10D94B2F10D94B2F160
:20E0A0000D94B2F10D94B2F10D94B2F10D94B2F10D94B2F10D94B2F10D94B2F10D94B2F140
:20E0C0000D94B2F10D94B2F10D94B2F10D94B2F10D94B2F10D94B2F10D94B2F10D94B2F120
:20E0E0000D94B2F141546D656761323536300041726475696E6F206578706C6F726572205D
:20E1000073746B3530305632206279204D4C5300426F6F746C6F616465723E004875683FDC
:20E1200000436F6D70696C6564206F6E203D20004350552054797065202020203D20005F52
:20E140005F4156525F415243485F5F3D2000415652204C696243205665723D200047434305
:20E160002056657273696F6E203D20004350552049442020202020203D20004C6F772066B2
:20E18000757365202020203D20004869676820667573652020203D200045787420667573A6
:20E1A00065202020203D20004C6F636B20667573652020203D20004D6172202037203230EB
:20E1C000313300312E362E3800342E332E35005623202020414444522020206F7020636FC3
:20E1E00064652020202020696E737472756374696F6E2061646472202020496E7465727265
:20E20000757074006E6F20766563746F7200726A6D702020006A6D70200057686174207091
:20E220006F72743A00506F7274206E6F7420737570706F72746564004D7573742062652083
:20E2400061206C65747465720020005772697474696E672045450052656164696E6720456C
:20E26000450045452065727220636E743D00504F525400303D5A65726F2061646472003F78
:20E280003D43505520737461747300403D454550524F4D207465737400423D426C696E6B76
:20E2A000204C454400453D44756D7020454550524F4D00463D44756D7020464C41534800C2
:20E2C000483D48656C70004C3D4C69737420492F4F20506F72747300513D51756974005269
:20E2E0003D44756D702052414D00563D73686F7720696E7465727275707420566563746FC9
:20E30000727300593D506F727420626C696E6B002A0011241FBECFEFD1E2DEBFCDBF01E0F6
:20E320000CBF12E0A0E0B2E0EEE1FDEF03E00BBF02C007900D92A030B107D9F712E0A0E0E4
:20E34000B2E001C01D92AE30B107E1F70F9460F30D948DFE01E20EBF0FEF0DBF11241FBE9F
:20E360000D9460F30D9400F020E030E040ED57E005C0FA013197F1F72F5F3F4F2817390799
:20E38000C0F308959C01260F311DC901A0E0B0E02F5F3F4FABBFFC018791882361F0809389
:20E3A000C6008091C00086FFFCCF8091C00080648093C000EACF08958DE08093C600809141
:20E3C000C00086FFFCCF8091C00080648093C0008AE08093C6008091C00086FFFCCF809130
:20E3E000C00080648093C00008950F94C2F10F94DCF10895FC019081992359F09093C600AA
:20E400008091C00086FFFCCF8091C00080648093C0003196992379F70895282F982F92957E
:20E420009F70892F805D8A3308F0895F8093C6008091C00086FFFCCF8091C00080648093D9
:20E44000C000822F8F70982F905D9A3308F0995F9093C6008091C00086FFFCCF8091C00000
:20E4600080648093C00008959C01FB01853691051CF46330710594F0C90164E670E00F94BA
:20E480002EFE605D7F4F6093C6008091C00086FFFCCF8091C00080648093C0002B303105D2
:20E4A00014F43297B4F0C90164E670E00F942EFE6AE070E00F942EFE605D7F4F6093C60007
:20E4C0008091C00086FFFCCF8091C00080648093C000C9016AE070E00F942EFEC0968093F7
:20E4E000C6008091C00086FFFCCF8091C00080648093C00008951F93182F8EE692EE60E0E3
:20E500000F94C2F11093C6008091C00086FFFCCF8091C00080648093C0000F94DCF11F9173
:20E5200008952F923F924F925F926F927F928F929F92AF92BF92CF92DF92EF92FF920F935E
:20E540001F93DF93CF93CDB7DEB762970FB6F894DEBF0FBECDBF382E622ECA01DB015C01E2
:20E560006D01772420E2222E2E010894411C511C8BC081E0A81680E0B80681E0C80680E094
:20E58000D80628F0C601AA27BB270F940DF2BB27AD2D9C2D8B2D0F940DF28A2D0F940DF231
:20E5A0002092C6008091C00086FFFCCF8091C00080648093C0009DE29093C6008091C00001
:20E5C00086FFFCCF8091C00080648093C0002092C6008091C00086FFFCCF8091C000806415
:20E5E0008093C00019828601750188249924A1E03A1651F03A1620F0B2E03B1661F409C0D4
:20E600000BBFF701779007C0C7010F9477FE782E02C0F7017080872D0F940DF22092C6006C
:20E620008091C00086FFFCCF8091C00080648093C000872D8052F401EF70F0708F3520F41F
:20E64000E40DF51D708204C0E40DF51D8EE280830894E11CF11C011D111D0894811C911CB3
:20E6600090E18916910409F0C2CF80E190E0A0E0B0E0A80EB91ECA1EDB1E198AC2010F9413
:20E68000FAF10F94DCF16A94662009F072CF62960FB6F894DEBF0FBECDBFCF91DF911F91A2
:20E6A0000F91FF90EF90DF90CF90BF90AF909F908F907F906F905F904F903F902F900895FB
:20E6C0002F923F924F925F926F927F928F929F92AF92BF92CF92DF92EF92FF920F931F93A8
:20E6E000DF93CF93CDB7DEB7CD53D1400FB6F894DEBF0FBECDBF01E20EBF0FEF0DBF94B7F0
:20E70000F894A89514BE8091600088618093600010926000789493FF05C0E0910002F09138
:20E7200001021995279A2F9A8091C00082608093C00080E18093C40088E18093C1000000A3
:20E74000EE24FF24870144E0A42EB12CCC24DD2424C0C5010197F1F70894E11CF11C011D4A
:20E76000111D21E2E2162EE4F20620E0020720E0120718F031E0C32ED12CC801B70127ECA9
:20E780003BE140E050E00F9441FE611571058105910519F485B1805885B98091C00087FD75
:20E7A00003C0C114D104A9F2A6014F5F5F4FC25EDE4F59834883CE51D140C25EDE4F8881D4
:20E7C0009981CE51D140019711F00D9410FEC05DDE4F19821882C053D14060E0C15DDE4F79
:20E7E0001882CF52D14088249924C35DDE4F19821882CD52D140C05EDE4F188219821A8216
:20E800001B82C052D140CE5CDE4F188219821A821B82C253D140EE24FF2487010BBFF701CE
:20E8200007911691C45CDE4F19830883CC53D1400D940BFEC25EDE4F28813981CE51D1406B
:20E840002130310509F52091C600C25EDE4F19821882CE51D14022C02F5F3F4F4F4F5F4FC0
:20E86000213082E138078AE7480780E0580780F0C45CDE4FE881F981CC53D140EF5FFF4FBA
:20E8800019F0EE27FF27099420E030E040E050E08091C00087FFE0CF2091C600C35DDE4F6D
:20E8A00048815981CD52D1404F5F5F4FC35DDE4F59834883CD52D140213209F063C64A3016
:20E8C000510508F05FC60894811C911C53E08516910409F059C600E010E018C081E2809346
:20E8E000C6008091C00086FFFCCF8091C00080648093C0002F5F3F4F2931310579F70F94EA
:20E90000DCF10F5F1F4F0530110519F020E030E0E5CF10920A0210920B0210920C02109287
:20E920000D0210920602109207021092080210920902109202021092030210920402109283
:20E9400005028FEE90EE60E00F94F5F180E191EE60E00F94C2F18091C00087FFFCCF909133
:20E96000C600903608F09F759032B8F09093C6008091C00086FFFCCF8091C00080648093C3
:20E98000C000A0E2A093C6008091C00086FFFCCF8091C00080648093C000983409F4D7C132
:20E9A0009934B8F4923409F459C1933458F4903319F1903308F4E3C59F33A1F1903409F099
:20E9C000DEC5BDC0953409F470C1963409F0D7C598C1923509F42BC2933538F49C3409F4F6
:20E9E000F5C1913509F0CBC518C2963509F445C2993509F0C4C567C483E792EE62E00F941F
:20EA0000F5F11092060210920702109208021092090210920A0210920B0210920C021092B3
:20EA20000D0213C18FE792EE62E00F94F5F18FEE90EE60E00F94F5F181E291EE60E00F94A9
:20EA4000C2F187EB91EE60E00F94F5F180E391EE60E00F94C2F184EE90EE60E00F94F5F118
:20EA60008FE391EE60E00F94C2F186E090E061E070E00F9434F20F94DCF18DE591EE60E03E
:20EA80000F94C2F189EC91EE60E00F94F5F18EE491EE60E00F94C2F183EC91EE60E00F940B
:20EAA000F5F18CE691EE60E00F94C2F18EE10F940DF288E90F940DF281E00F940DF20F941F
:20EAC000DCF18BE791EE60E00F94C2F119E0E0E0F0E010935700E4918E2F0F940DF20F94E8
:20EAE000DCF18AE891EE60E00F94C2F1E3E0F0E010935700E4918E2F0F940DF20F94DCF1F1
:20EB000089E991EE60E00F94C2F1E2E0F0E010935700E4918E2F0F940DF20F94DCF188EA2C
:20EB200091EE60E00F94C2F1E1E0F0E0109357001491812F0F940DF20F94DCF107CF8BE885
:20EB400092EE62E00F94F5F18BE492EE60E00F94F5F10F94DCF100E010E019C0C8016F2D34
:20EB60000F947FFEFF2031F489E492EE60E00F94C2F10BC0F092C6008091C00086FFFCCF7A
:20EB80008091C00080648093C0000F5F1F4FC80181519F41A0E0B0E0ABBFFC01F790BAE2FC
:20EBA000FB1621F0E2E000301E07C1F60F94DCF10F94DCF187E592EE60E00F94F5F10F942D
:20EBC000DCF1CC24DD2400E010E01EC0C8010F9477FEF82E882331F489E492EE60E00F9422
:20EBE000C2F10BC08093C6008091C00086FFFCCF8091C00080648093C000FE1419F008945E
:20EC0000C11CD11C0F5F1F4FC80181519F41A0E0B0E0ABBFFC01E790FAE2EF1621F022E0F1
:20EC20000030120799F60F94DCF10F94DCF182E692EE60E00F94C2F1C60161E070E00F94A3
:20EC400034F20F94DCF10F94DCF11092020210920302109204021092050278CE89E992EED8
:20EC600062E00F94F5F1279A2F9A16C02F9880E090E0E0EDF7E03197F1F701968436910597
:20EC8000C1F72F9A80E090E0E0EDF7E03197F1F7019684369105C1F78091C00087FFE6CF24
:20ECA0008091C00087FFFCCF64C485EA92EE62E00F94F5F14091020250910302609104029E
:20ECC0007091050281E020E10F9491F28091020290910302A0910402B091050280509F4F2C
:20ECE000AF4FBF4F8093020290930302A0930402B093050280509041A040B04008F426CEE5
:20ED0000A4CF83EB92EE62E00F94F5F14091060250910702609108027091090280E020E19C
:20ED20000F9491F28091060290910702A0910802B091090280509F4FAF4FBF4F80930602FE
:20ED400090930702A0930802B0930902FFCD80EC92EE62E00F94F5F183E792EE60E00F94AC
:20ED6000F5F18FE792EE60E00F94F5F18BE892EE60E00F94F5F189E992EE60E00F94F5F177
:20ED800085EA92EE60E00F94F5F183EB92EE60E00F94F5F180EC92EE60E00F94F5F187ECDC
:20EDA00092EE60E00F94F5F188ED92EE60E00F94F5F18FED92EE60E00F94F5F18AEE92EE8F
:20EDC00060E00F94F5F183E093EEBDCD87EC92EE62E00F94F5F181E40F947BF282E40F94C0
:20EDE0007BF283E40F947BF284E40F947BF285E40F947BF286E40F947BF287E40F947BF249
:20EE000088E40F947BF28AE40F947BF28BE40F947BF28CE40F947BF299CD88ED92EE62E05C
:20EE20000F94F5F1772473948824992409C48FED92EE62E00F94F5F140910A0250910B02DF
:20EE400060910C0270910D0282E020E10F9491F280910A0290910B02A0910C02B0910D0240
:20EE600080509F4FAF4FBF4F80930A0290930B02A0930C02B0930D0269CD8AEE92EE62E076
:20EE80000F94F5F184EE90EE60E00F94F5F18FEC91EE60E00F94F5F1662477244301CC5DDB
:20EEA000DE4F19821882C452D140D401C301B695A79597958795CA5DDE4F88839983AA83B9
:20EEC000BB83C652D140CC5DDE4FA881B981C452D1401196CC5DDE4FB983A883C452D14060
:20EEE000CD0162E070E00F9434F2B0E2B093C6008091C00086FFFCCF8091C0008064809365
:20EF0000C000EDE2E093C6008091C00086FFFCCF8091C00080648093C000F0E2F093C60065
:20EF20008091C00086FFFCCF8091C00080648093C000CA5DDE4FE880F9800A811B81C652B4
:20EF4000D140BB27A12F902F8F2D0F940DF2CA5DDE4F8881C652D1400F940DF2B0E2FB2EEE
:20EF6000F092C6008091C00086FFFCCF8091C00080648093C0000DE30093C6008091C00086
:20EF800086FFFCCF8091C00080648093C00010E21093C6008091C00086FFFCCF8091C0004C
:20EFA00080648093C0008BBEF3012791C65DDE4F2883CA52D140A22EBB24CC24DD24089441
:20EFC000611C711C811C911C8BBEF3018791282E3324442455240894611C711C811C911C0A
:20EFE0008BBEF3013791C55DDE4F3883CB52D1400894611C711C811C911C8BBEF3014791CF
:20F00000C45DDE4F4883CC52D140ADEFEA2EAFEFFA2EAFEF0A2FAFEF1A2F6E0C7F1C801EBD
:20F02000911E142D032DF22CEE24EA0CFB1C0C1D1D1D0F940DF220E22093C6008091C00022
:20F0400086FFFCCF8091C00080648093C000C65DDE4F8881CA52D1400F940DF230E23093DB
:20F06000C6008091C00086FFFCCF8091C00080648093C000C45DDE4F8881CC52D1400F94F8
:20F080000DF240E24093C6008091C00086FFFCCF8091C00080648093C000C55DDE4F8881B5
:20F0A000CB52D1400F940DF250E25093C6008091C00086FFFCCF8091C00080648093C000FC
:20F0C0008FEFE8168FEFF80680E0080780E0180731F484E092EE60E00F94C2F1DFC0D80133
:20F0E000C7018070907CA070B0708050904CA040B040D1F52FEF3FE340E050E0E222F32231
:20F1000004231523CA5DDE4FA880B980CA80DB80C652D140AE0CBF1CC01ED11EAA0CBB1C1E
:20F12000CC1CDD1C8EE092EE60E00F94C2F1BB27A12F902F8F2D0F940DF28E2D0F940DF23E
:20F1400030E23093C6008091C00086FFFCCF8091C00080648093C0004EE34093C600809190
:20F16000C00086FFFCCF87C08EE09EEFA0E0B0E0E822F9220A231B239CE0E91694E9F906A6
:20F1800090E0090790E0190709F088C0C45DDE4FA881CC52D140EA2EFF2400E010E0102F2E
:20F1A0000F2DFE2CEE24C55DDE4FB881CB52D140EB0EF11C011D111DD601C5018170907041
:20F1C000A070B070DC0199278827E80EF91E0A1F1B1F20EF30E040E050E0A222B322C42255
:20F1E000D52241E1AA0CBB1CCC1CDD1C4A95D1F7EA0CFB1C0C1D1D1D81E090E0A0E0B0E090
:20F20000282239224A225B2235E1220C331C441C551C3A95D1F7E20CF31C041D151D5701BD
:20F220006801AA0CBB1CCC1CDD1C85E192EE60E00F94C2F1C801AA27BB270F940DF2BB277B
:20F24000A12F902F8F2D0F940DF28E2D0F940DF290E29093C6008091C00086FFFCCF8091D7
:20F26000C00080648093C000AEE3A093C6008091C00086FFFCCF8091C00080648093C000E4
:20F28000C601AA27BB270F940DF2BB27AD2D9C2D8B2D0F940DF28A2D0F940DF20F94DCF1AA
:20F2A000CC5DDE4FE881F981C452D140F99709F44DCBF4E0EF2EF12C012D112D6E0C7F1CBA
:20F2C000801E911EF2CD83E093EE62E00F94F5F18AE192EE60E00F94C2F18091C00087FF9B
:20F2E000FCCF1091C6001F751093C6008091C00086FFFCCF8091C00080648093C0000F9493
:20F30000DCF1812F81548A3108F036C1163409F495C0173490F4133409F44EC0143430F4C8
:20F320001134F1F0123409F01DC130C0143409F459C0153409F016C16BC01A3409F4C4C029
:20F340001B3438F4173409F48FC0183409F00AC1A1C01B3409F4D2C01C3409F003C1E8C097
:20F360008FEF81B90DC082B1809582B980E090E0E0EDF7E03197F1F70196883C9105C1F7B8
:20F380008091C00087FFEFCF12B8EFC08FEF84B90DC085B1809585B980E090E0E0EDF7E05A
:20F3A0003197F1F70196883C9105C1F78091C00087FFEFCF15B8D9C08FEF87B90DC088B1B5
:20F3C000809588B980E090E0E0EDF7E03197F1F70196883C9105C1F78091C00087FFEFCFF5
:20F3E00018B8C3C08FEF8AB90DC08BB180958BB980E090E0E0EDF7E03197F1F70196883C18
:20F400009105C1F78091C00087FFEFCF1BB8ADC08FEF8DB90DC08EB180958EB980E090E04D
:20F42000E0EDF7E03197F1F70196883C9105C1F78091C00087FFEFCF1EB897C08FEF80BBD4
:20F440000DC081B3809581BB80E090E0E0EDF7E03197F1F70196883C9105C1F78091C000BC
:20F4600087FFEFCF11BA81C08FEF83BB0DC084B3809584BB80E090E0E0EDF7E03197F1F704
